:020000040800F2
:1000000000500020FD200008C91D0008CF1D000879
:10001000D51D0008DB1D0008E11D000800000000E0
:10002000000000000000000000000000E71D0008C4
:10003000F31D000800000000FF1D00080B1E000853
:1000400045210008452100084521000845210008F8
:1000500045210008452100084521000845210008E8
:1000600045210008452100084521000845210008D8
:1000700045210008452100084521000845210008C8
:1000800045210008452100084521000845210008B8
:1000900045210008452100084521000845210008A8
:1000A0004521000845210008452100084521000898
:1000B000191E00082D1E00084521000845210008D2
:1000C0004521000845210008452100084521000878
:1000D0004521000845210008452100084521000868
:1000E000411E0008452100084521000800000000CD
:1000F0000000000000000000000000000000000000
:0C01000000000000000000005FF808F1A3
:1001100010B5054C237833B9044B13B10448AFF341
:1001200000800123237010BDBC00002000000000EF
:10013000704B000808B5034B1BB103490348AFF3EC
:10014000008008BD00000000C0000020704B0008C7
:100150004FF0FF0C1CEAD0521EBF1CEAD15392EAAA
:100160000C0F93EA0C0F6FD01A4480EA010C400286
:1001700018BF5FEA41211ED04FF0006343EA5010E0
:1001800043EA5111A0FB01310CF00040B1F5000F22
:100190003EBF490041EAD3715B0040EA010062F1D1
:1001A0007F02FD2A1DD8B3F1004F40EBC25008BFBB
:1001B00020F00100704790F0000F0CF0004C08BFD9
:1001C00049024CEA502040EA51207F3AC2BFD2F1A6
:1001D000FF0340EAC250704740F400004FF00003B4
:1001E000013A5DDC12F1190FDCBF00F000407047EE
:1001F000C2F10002410021FA02F1C2F1200200FA2C
:1002000002FC5FEA310040F1000053EA4C0308BFF2
:1002100020EADC70704792F0000F00F0004C02BF43
:10022000400010F4000F013AF9D040EA0C0093F0BE
:10023000000F01F0004C02BF490011F4000F013B18
:10024000F9D041EA0C018FE70CEAD15392EA0C0F86
:1002500018BF93EA0C0F0AD030F0004C18BF31F0F1
:10026000004CD8D180EA010000F00040704790F0C7
:10027000000F17BF90F0004F084691F0000F91F06B
:10028000004F14D092EA0C0F01D142020FD193EA31
:100290000C0F03D14B0218BF084608D180EA0100B9
:1002A00000F0004040F0FE4040F40000704740F095
:1002B000FE4040F44000704781F0004102E000BF82
:1002C00083F0004330B54FEA41044FEA430594EA16
:1002D000050F08BF90EA020F1FBF54EA000C55EA51
:1002E000020C7FEA645C7FEA655C00F0E2804FEA22
:1002F0005454D4EB5555B8BF6D420CDD2C4480EA04
:10030000020281EA030382EA000083EA010180EA33
:10031000020281EA0303362D88BF30BD11F0004F81
:100320004FEA01314FF4801C4CEA113102D04042B7
:1003300061EB410113F0004F4FEA03334CEA1333F2
:1003400002D0524263EB430394EA050F00F0A7800A
:10035000A4F10104D5F1200E0DDB02FA0EFC22FA05
:1003600005F2801841F1000103FA0EF2801843FAF9
:1003700005F359410EE0A5F120050EF1200E012AEA
:1003800003FA0EFC28BF4CF0020C43FA05F3C01828
:1003900051EBE37101F0004507D54FF0000EDCF1A1
:1003A000000C7EEB00006EEB0101B1F5801F1BD34A
:1003B000B1F5001F0CD349085FEA30004FEA3C0C4E
:1003C00004F101044FEA445212F5800F80F09A8044
:1003D000BCF1004F08BF5FEA500C50F1000041EB48
:1003E000045141EA050130BD5FEA4C0C404141EB4C
:1003F0000101013C28BFB1F5801FE9D291F0000F47
:1004000004BF01460020B1FA81F308BF2033A3F1F5
:100410000B03B3F120020CDA0C3208DD02F1140CEC
:10042000C2F10C0201FA0CF021FA02F10CE002F127
:100430001402D8BFC2F1200C01FA02F120FA0CFC20
:10044000DCBF41EA0C019040E41AA2BF01EB045169
:10045000294330BD6FEA04041F3C1CDA0C340EDC67
:1004600004F11404C4F1200220FA04F001FA02F3AA
:1004700040EA030021FA04F345EA030130BDC4F168
:100480000C04C4F1200220FA02F001FA04F340EA5D
:100490000300294630BD21FA04F0294630BD94F00E
:1004A000000F83F4801306BF81F480110134013DF5
:1004B0004EE77FEA645C18BF7FEA655C29D094EA66
:1004C000050F08BF90EA020F05D054EA000C04BFE4
:1004D0001946104630BD91EA030F1EBF00210020CF
:1004E00030BD5FEA545C05D14000494128BF41F06E
:1004F000004130BD14F580043CBF01F5801130BDD2
:1005000001F0004545F0FE4141F470014FF000005C
:1005100030BD7FEA645C1ABF194610467FEA655C0D
:100520001CBF0B46024650EA013406BF52EA0335AF
:1005300091EA030F41F4002130BD00BF90F0000F9D
:1005400004BF0021704730B54FF4806404F13204D9
:100550004FF000054FF0000150E700BF90F0000F92
:1005600004BF0021704730B54FF4806404F13204B9
:1005700010F0004548BF40424FF000013EE700BF89
:1005800042004FEAE2014FEA31014FEA02701FBF19
:1005900012F07F4393F07F4F81F06051704732F04B
:1005A0007F4208BF704793F07F4F04BF41F40021A2
:1005B000704730B54FF4607401F0004521F0004100
:1005C0001CE700BF50EA010208BF704730B54FF08A
:1005D00000050AE050EA010208BF704730B511F08B
:1005E000004502D5404261EB41014FF4806404F1C3
:1005F00032045FEA915C3FF4D8AE4FF003025FEA49
:10060000DC0C18BF03325FEADC0C18BF033202EBCC
:10061000DC02C2F1200300FA03FC20FA02F001FA26
:1006200003FE40EA0E0021FA02F11444BDE600BFC9
:100630004FEA4102B2F1E04324BFB3F5001CDCF104
:10064000FE5C0DD901F0004C4FEAC0024CEA50703C
:10065000B2F1004F40EB830008BF20F0010070476B
:1006600011F0804F21D113F13872BCBF01F000406E
:10067000704741F480114FEA5252C2F11802C2F1A0
:10068000200C10FA0CF320FA02F018BF40F0010021
:100690004FEAC1234FEAD32303FA0CFC40EA0C00D3
:1006A00023FA02F34FEA4303CCE77FEA625307D110
:1006B00050EA01331EBF4FF0FE4040F44000704747
:1006C00001F0004040F0FE4040F40000704700BFE1
:1006D00080F0004002E000BF81F0004142001FBFF7
:1006E0005FEA410392EA030F7FEA226C7FEA236C00
:1006F0006AD04FEA1262D2EB1363C1BFD2184140F5
:1007000048404140B8BF5B42192B88BF704710F08A
:10071000004F40F4000020F07F4018BF404211F02D
:10072000004F41F4000121F07F4118BF494292EA95
:10073000030F3FD0A2F1010241FA03FC10EB0C00C1
:10074000C3F1200301FA03F100F0004302D549424E
:1007500060EB4000B0F5000F13D3B0F1807F06D3FB
:1007600040084FEA310102F10102FE2A51D2B1F1F3
:10077000004F40EBC25008BF20F0010040EA0300E8
:100780007047490040EB0000013A28BFB0F5000F68
:10079000EDD2B0FA80FCACF1080CB2EB0C0200FA1E
:1007A0000CF0AABF00EBC25052421843BCBFD0406D
:1007B0001843704792F0000F81F4000106BF80F4E7
:1007C00000000132013BB5E74FEA41037FEA226CAA
:1007D00018BF7FEA236C21D092EA030F04D092F075
:1007E000000F08BF0846704790EA010F1CBF0020A9
:1007F000704712F07F4F04D1400028BF40F0004006
:10080000704712F100723CBF00F50000704700F025
:10081000004343F0FE4040F4000070477FEA22624C
:1008200016BF08467FEA23630146420206BF5FEA1D
:10083000412390EA010F40F4800070474FF000031D
:1008400004E000BF10F0004348BF40425FEA000CE4
:1008500008BF704743F0964301464FF000001CE08C
:1008600050EA010208BF70474FF000030AE000BFE2
:1008700050EA010208BF704711F0004302D5404220
:1008800061EB41015FEA010C02BF84460146002092
:1008900043F0B64308BFA3F18053A3F50003BCFAAD
:1008A0008CF2083AA3EBC25310DB01FA02FC63445A
:1008B00000FA02FCC2F12002BCF1004F20FA02F261
:1008C00043EB020008BF20F00100704702F1200254
:1008D00001FA02FCC2F1200250EA4C0021FA02F2B5
:1008E00043EB020008BF20EADC7070474FF0FF3C8A
:1008F00006E000BF4FF0010C02E000BF4FF0010C1A
:100900004DF804CD4FEA40024FEA41037FEA226CE2
:1009100018BF7FEA236C11D001B052EA530C18BF04
:1009200090EA010F58BFB2EB030088BFC81738BF69
:100930006FEAE17018BF40F0010070477FEA226C57
:1009400002D15FEA402C05D17FEA236CE4D15FEA53
:10095000412CE1D05DF8040B704700BF8446084687
:100960006146FFE70FB5FFF7C9FF002848BF10F148
:10097000000F0FBD4DF808EDFFF7F4FF0CBF01208D
:1009800000205DF808FB00BF4DF808EDFFF7EAFF17
:1009900034BF012000205DF808FB00BF4DF808EDD2
:1009A000FFF7E0FF94BF012000205DF808FB00BFC7
:1009B0004DF808EDFFF7D2FF94BF012000205DF84D
:1009C00008FB00BF4DF808EDFFF7C8FF34BF01205A
:1009D00000205DF808FB00BF4FEA4002B2F1FE4F75
:1009E0000FD34FF09E03B3EB12620DD94FEA0023F1
:1009F00043F0004310F0004F23FA02F018BF4042CA
:100A000070474FF00000704712F1610F01D14202B0
:100A100005D110F0004008BF6FF0004070474FF064
:100A20000000704780B500AF0B4B1B680B4A82FB80
:100A300003129211DB17D31A1A460949094803F029
:100A40005DFC03469AB24FF47A730649064803F0F8
:100A5000B8FA00BF80BD00BF0C000020D34D62106B
:100A6000884B00086C0100203002002080B500AFE8
:100A7000002000F0A3FB0346002B01D0012310E06F
:100A8000012000F09BFB0346002B01D0022308E06D
:100A9000022000F093FB0346002B01D0032300E06B
:100AA0000023184680BD80B500AF282001F0FCFA75
:100AB00000BF80BD80B500AF292001F0F5FA00BF6E
:100AC00080BD000080B500AFFFF7EDFF0E4B1B6847
:100AD000022B10D0022B13DC002B02D0012B05D0EF
:100AE0000EE01E21282001F023FA0AE01F21282011
:100AF00001F01EFA05E02021282001F019FA00E09B
:100B000000BF00BF80BD00BF0400002080B500AF63
:100B1000FFF7D0FF0E4B5B68022B10D0022B13DCCB
:100B2000002B02D0012B05D00EE01E21292001F060
:100B3000FFF90AE01F21292001F0FAF905E0202140
:100B4000292001F0F5F900E000BF00BF80BD00BF23
:100B50000400002080B483B000AF78607B68002B75
:100B60001ED1214A7B6852F82330022B12D0022B6F
:100B700029DC002B02D0012B06D024E01A4A7B6826
:100B8000022142F823101FE0174A7B68002142F837
:100B9000231019E0144A7B68012142F8231013E066
:100BA000114A7B6852F82330991C104B83FB0132A9
:100BB000CB17D21A13465B001344CA1A0A497B6842
:100BC00041F8232000E000BF074A7B6852F8233039
:100BD000074A52F8232007497B6841F8232000BFC9
:100BE0000C37BD4680BC7047040000205655555553
:100BF000140000200C00002080B500AF094B1B68DA
:100C0000002B04DC0020FFF7A5FFFFF75BFF054B7F
:100C10005B68002B04DC0120FFF79CFFFFF776FFE9
:100C200000BF80BD0C00002080B500AF0C4B1B68DE
:100C3000012B13D10B4B1B68A3F57A73094A136080
:100C4000084B5B68A3F57A73064A5360FFF7D4FF3D
:100C5000FFF7E8FE4FF47A7000F02AFF00BF80BD76
:100C60003C0100200C00002080B400AF114B42F288
:100C700010721A600F4B40F6B8325A600D4B41F6B5
:100C800058329A600C4B00221A600B4B02225A60B9
:100C9000094B1B68074A52F82330084A1360064B79
:100CA0005B68044A52F82330044A536000BFBD46D3
:100CB00080BC704714000020040000200C000020BD
:100CC00080B483B000AF786039607B68022B1FD09E
:100CD0007B68022B27DC7B68002B03D07B68012B11
:100CE0000BD020E0134B1A683B684FF47A7101FB7C
:100CF00003F313440F4A136016E00E4B5A683B6827
:100D00004FF47A7101FB03F313440A4A53600BE07A
:100D1000084B9A683B684FF47A7101FB03F3134464
:100D2000044A936000E000BF00BF0C37BD4680BCA2
:100D3000704700BF1400002080B500AF5B4B1B68FC
:100D4000022B77D0022B00F3AE80002B02D0012BB8
:100D500039D0A8E0564B1B68012B16D10022082180
:100D6000544801F020FD4FF48061534801F033FDF9
:100D7000002210214F4801F016FD20214D4801F0BE
:100D80002AFD4FF4FA7000F079FE4C4B1A684C4B78
:100D90001B684FF47A7101FB03F31344494A9342F1
:100DA00002DD474B00221A60444B1A68444B1B6813
:100DB0004FF47A7101FB03F31344434A1360424B2F
:100DC00000225A6070E03A4B1B68012B14D14FF49B
:100DD0008061394801F0FFFC0821364801F0FBFC36
:100DE0002021344801F0F7FC1021324801F0F3FCD7
:100DF0004FF4FA7000F042FE304B5A68304B1B68DB
:100E00004FF47A7101FB03F313442E4A934202DD3F
:100E10002B4B00221A60294B5A68294B1B684FF450
:100E20007A7101FB03F31344274A1360264B002217
:100E30005A6039E01E4B1B68012B16D100224FF47B
:100E400080611D4801F0AFFC08211A4801F0C3FC85
:100E500000222021174801F0A6FC1021154801F0BE
:100E6000BAFC4FF4FA7000F009FE144B9A68144B68
:100E70001B684FF47A7101FB03F31344114A934248
:100E800002DD0F4B00221A600C4B9A680C4B1B685A
:100E90004FF47A7101FB03F313440B4A13600A4BBE
:100EA00000225A6000E000BF00BF80BD00000020AB
:100EB00038010020000C014000080140140000200F
:100EC000E0000020B88201000C00002080B500AFD7
:100ED0001A4B1B68022B2BD0022B2CDC002B02D0D0
:100EE000012B22D027E0164B00221A60144B02225D
:100EF0005A60134B1B68134A52F82330124A13608E
:100F00000F4B5B680F4A52F823300F4A5360FFF7CC
:100F100089FDFFF7D7FDFFF7F9FD084B01221A60A5
:100F20004FF47A7000F0C4FD06E0FFF77DFE03E0A9
:100F3000FFF702FF00E000BF00BF80BDD800002027
:100F400004000020140000200C00002080B500AF39
:100F5000002000F033F90346002B1DD0FFF7A3FD5E
:100F6000FFF7A8FD2E4B02221A602E4B1B6801339F
:100F70002C4A13602C4B00221A602A4B1B68022B50
:100F800006DD274B00221A60264B4FF0FF321A6015
:100F9000FFF7D2FEFFF746FD012000F00FF90346F0
:100FA000002B11D01F4B1B68B3F1FF3F0CD01E4B21
:100FB0001B6801331C4A13601C4B1B68002B03D0B9
:100FC000FFF7BAFEFFF72EFD022000F0F7F8034608
:100FD000002B1AD0134B1B68B3F1FF3F15D0124BF7
:100FE0001B68002B07D00F4B1B680F4A1268114675
:100FF0001846FFF765FE0C4B00221A60094B4FF0B4
:10100000FF321A60064B00221A60084B1B68002B47
:1010100004D1FFF729FE054B01221A6000BF80BDF5
:10102000D800002000000020E0000020DC000020AC
:1010300080B500AF0D4B1B78002B02D0012B0AD0DE
:1010400011E0FFF713FD0346002B04D0074B0122EC
:101050001A70FFF77BFFFFF709FD0346002B02D153
:10106000024B00221A7000BF00BF80BDF8000020B4
:1010700080B582B000AF00237B6081E0454A7B6889
:1010800013441978444A7B6813440A461A70434A49
:101090007B6852F8232042497B6831F813301946A7
:1010A000104601F069FB034619463A4A7B6813442F
:1010B0000A461A70374A7B6813441A7836497B68A7
:1010C0000B441B789A4258D1324A7B6813441978F2
:1010D000344A7B6813440A461A70324A7B681344C8
:1010E0001B78002B35D1304A7B6832F81330182B2F
:1010F0000ED82E4B1B68002B0AD02B4A7B6832F887
:101100001330013399B2284A7B6822F8131009E0A2
:10111000254A7B68002122F81310254A7B680121AB
:1011200042F82310234A7B6832F81330632B0AD825
:10113000204A7B6832F81330013399B21D4A7B682C
:1011400022F8131019E01C4A7B68134401221A701C
:1011500013E0184A7B68002122F81310124A7B68BA
:10116000002122F81310144A7B68134400221A70DD
:101170000F4A7B68002142F823107B6801337B60B3
:101180007B68032B7FF77AAF00BF00BF0837BD46EF
:1011900080BD00BF000100200401002020000020CD
:1011A00030000020FC00002014010020E40000209A
:1011B000E80000200C0100200801002080B483B06A
:1011C00000AF0346FB71FB79032B01D9002307E035
:1011D000FB79064AD35C002B0CBF01230023DBB252
:1011E00018460C37BD4680BC704700BFFC0000208D
:1011F00080B500AF00F0A8FF00F02EF800F05AF91B
:1012000000F02EF900F06AF800F0B4F800210F4861
:1012100002F026F80E4801F079FF0C4801F076FF45
:101220004FF4FA7000F02AFC4FF47A7000F040FCA2
:101230000A2000F057FC2021064801F0CCFAFFF705
:10124000F7FEFFF743FE00F0F7F9F4E7A0010020F6
:10125000E80100200008014080B590B000AF07F120
:10126000180328220021184603F040F83B1D0022F5
:101270001A605A609A60DA601A610223BB61012326
:10128000BB621023FB6202237B630023BB634FF42A
:101290006013FB6307F11803184601F0CDFA03460B
:1012A000002B01D000F0C3F90F237B600223BB6049
:1012B0000023FB604FF480633B6100237B613B1D97
:1012C0000221184601F038FD0346002B01D000F042
:1012D000AEF900BF4037BD4680BD000080B586B086
:1012E00000AF07F1080300221A605A609A60DA60C2
:1012F0003B4600221A605A601D4B4FF080421A6034
:101300001B4B47F6FF425A60194B00229A60184B5C
:101310001322DA60164B00221A61154B00229A61E3
:10132000134801F0A3FE0346002B01D000F07FF923
:101330004FF48053BB6007F1080319460C4802F0D4
:10134000F7F90346002B01D000F071F900233B6050
:1013500000237B603B461946054802F075FD0346B5
:10136000002B01D000F063F900BF1837BD4680BDE7
:10137000E801002080B58EB000AF07F128030022FD
:101380001A605A609A60DA6007F1200300221A603E
:101390005A603B1D00221A605A609A60DA601A6136
:1013A0005A619A612C4B2D4A1A602B4B3F225A608E
:1013B000294B00229A60284B40F2E732DA60264B34
:1013C00000221A61244B00229A61234801F04EFE4C
:1013D0000346002B01D000F02AF94FF48053BB6282
:1013E00007F1280319461C4802F0A2F90346002B16
:1013F00001D000F01CF9184801F0DAFE0346002B7A
:1014000001D000F014F900233B6200237B6207F156
:1014100020031946104802F017FD0346002B01D0A7
:1014200000F005F960237B600023BB600023FB60B4
:1014300000237B613B1D00221946074802F0BAF8E1
:101440000346002B01D000F0F2F8034800F040FC06
:1014500000BF3837BD4680BDA00100200004004019
:1014600080B500AF114B124A1A60104B4FF4165260
:101470005A600E4B00229A600C4B0022DA600B4B34
:1014800000221A61094B0C225A61084B00229A6112
:10149000064B0022DA61054802F046FD0346002BA8
:1014A00001D000F0C4F800BF80BD00BF30020020B2
:1014B0000044004080B588B000AF07F1100300225F
:1014C0001A605A609A60DA60454B9B69444A43F05F
:1014D00010039361424B9B6903F01003FB60FB68B0
:1014E0003F4B9B693E4A43F0200393613C4B9B6911
:1014F00003F02003BB60BB68394B9B69384A43F05B
:1015000004039361364B9B6903F004037B607B68A3
:10151000334B9B69324A43F008039361304B9B691C
:1015200003F008033B603B6800224FF4A4612D48A0
:1015300001F039F900224FF487612B4801F033F9AB
:101540004FF400533B61294B7B610023BB6107F1E2
:1015500010031946264800F08BFF13233B6100233C
:101560007B610123BB6107F1100319461D4800F0A0
:101570007FFF4FF4A4633B6101237B610023BB61C8
:101580000223FB6107F110031946164800F070FFB3
:1015900001233B6100237B610123BB6107F1100341
:1015A0001946114800F064FF4FF487633B61012343
:1015B0007B610023BB610223FB6107F11003194625
:1015C000094800F055FF00220021282000F019FFF3
:1015D000282000F032FF00BF2037BD4680BD00BF8D
:1015E0000010024000080140000C014000001110F2
:1015F0000010014080B582B000AF78607B681B6846
:10160000B3F1804F05D100F087FA00F0E1F9FFF760
:101610002FFD00BF0837BD4680BD80B483B000AF4A
:101620000346FB8000BF0C37BD4680BC704780B4CA
:1016300000AF72B600BFFEE798B500AF0320FFF71A
:10164000BDFD0346002B0ED0A14B01221A602820BD
:1016500000F0E4FC03461E2B05D19E4B01221A60CC
:101660009D4B01221A60282000F0D8FC03461E2B57
:101670002AD1994B1B68002B03D1954B1B68002B7B
:1016800022D0944B01221A60944B1B68944A82FB2F
:1016900003129211DB17D31A782292FBF3F3914ACB
:1016A00013608E4B1B688E4A82FB03129211DB176C
:1016B000D31A4FF4C87292FBF3F38B4A1360874B33
:1016C0001B688A4A136006E0824B00221A601E21C2
:1016D0002A2000F02DFC7F4B1B68002B00F044817A
:1016E00020212A2000F024FC814B1B6800225A6331
:1016F000804B1B68184600F089FD784B1A687B4BBD
:101700001B685B007C4981FB0301DB17CB1A9A4203
:1017100062DB7A4B1B681846FEF732FF68A3D3E9F9
:101720000023FEF7CFFD02460B4610461946FEF792
:101730007FFF0346714A1360714B1A68694B1B683F
:1017400013446F4A13606E4B1A68694B1B685A63E7
:10175000684B1B681846FFF775F80446624B1B6818
:101760001846FFF76FF80246644B1B68194610468F
:10177000FEF7EEFC034619462046FFF723F9034621
:10178000002B23D05B4B1B681846FFF75BF8044621
:10179000554B1B681846FFF755F80246574B1B6818
:1017A00019461046FEF7D4FC034619462046FEF7BC
:1017B00093FF03461846FFF70FF903464D4A13609F
:1017C0004C4B1B68184600F021FDC9E0494B1B68D3
:1017D000184600F01BFDC3E0484B1B681846FEF797
:1017E000CFFE39A3D3E90023FEF76CFD02460B467A
:1017F00010461946FEF71CFF0346404A1360404B53
:101800001B681846FFF71EF80446364B1B6818463F
:10181000FFF718F80246394B1B6819461046FEF7C9
:1018200097FC034619462046FEF758FF0346184624
:10183000FFF7D2F80346324A1360314B1A682C4B3B
:101840001B685A632B4B1B681846FEF7FBFF0446C8
:10185000254B1B681846FEF7F5FF0246274B1B6811
:1018600019461046FEF774FC034619462046FFF75A
:10187000A9F80346002B45D01E4B1B681846FEF7FF
:10188000E1FF0446184B1B681846FEF7DBFF0246D3
:101890001A4B1B6819461046FEF75AFC03461946B8
:1018A0002046FEF719FF03461846FFF795F8034652
:1018B000104A13600F4B1B68184600F0A7FC4FE05E
:1018C0000AD7A3703D0AB73F333333333333D33FA3
:1018D000300100201C010020280100200C00002005
:1018E000D34D621020010020400000202401002080
:1018F000A001002038000020565555554400002016
:101900003C000020294B1B681846FEF79BFF04464D
:10191000274B1B6827491846FEF71AFC0346194651
:101920002046FFF74FF80346002B14D0204B1B68CE
:1019300083F0004320491846FEF70AFC0346184688
:10194000FFF74AF80346194A1360184B1B681846FC
:1019500000F05CFC04E0154B1B68184600F056FCD8
:10196000164B01221A601FE01E212A2000F0E0FA27
:10197000134B1B6800225A630C4B4FF47A721A60A7
:10198000104B0A221A600A4B4FF07E521A600E4B1F
:1019900000221A60094B1B68002B05D00B4B00225C
:1019A0001A60064B00221A6000BF98BD3800002064
:1019B00044000020000020410000A0412C01002034
:1019C000A00100203C000020280100203001002060
:1019D00080B400AF274B1A68274913469B00134475
:1019E0009B000B4404331B68002B13D0214B1A6857
:1019F000214913469B0013449B000B4404331B688E
:101A0000591E1D4813469B0013449B000344043396
:101A100019602AE0174B1968164B1A6816480B46CE
:101A20009B000B449B00034408331968124813467B
:101A30009B0013449B000344043319600D4B1A6848
:101A40000D4913469B0013449B000B440C331B7839
:101A5000084A12680133D8B2074913469B00134461
:101A60009B000B440C3302461A7000BFBD4680BC7D
:101A7000704700BF340100207402002080B483B09E
:101A800000AF7860074B1B687A6892FBF3F3064A55
:101A90001360064B00221A6000BF0C37BD4680BCA5
:101AA000704700BF480000204C0100203801002092
:101AB00080B483B000AF7860074B1B687A6892FBF4
:101AC000F3F3064A1360064B00221A6000BF0C377E
:101AD000BD4680BC704700BF480000205001002078
:101AE0003C01002080B483B000AF7860074B1B68D6
:101AF0007A6892FBF3F3064A1360064B00221A60E1
:101B000000BF0C37BD4680BC704700BF48000020B6
:101B1000540100204001002080B400AF294B1B6815
:101B2000002B0BDD274B1B68013B264A1360254B1E
:101B30001B68002B02DC244B01221A60234B1B681C
:101B4000002B0BDD214B1B68013B204A13601F4B10
:101B50001B68002B02DC1E4B01221A601D4B1B6808
:101B6000002B0BDD1B4B1B68013B1A4A1360194B02
:101B70001B68002B02DC184B01221A60174B1B68F4
:101B8000002B0BDD154B1B68013B144A1360134BF4
:101B90001B68002B02DC124B01221A60114B1B68E0
:101BA000002B0BDD0F4B1B68013B0E4A13600D4BE6
:101BB0001B68002B02DC0C4B01221A6000BFBD46E3
:101BC00080BC70474C0100203801002050010020EB
:101BD0003C01002054010020400100205801002059
:101BE000440100205C0100204801002080B485B041
:101BF00000AF154B9B69144A43F001039361124BEC
:101C00009B6903F00103BB60BB680F4BDB690E4AA5
:101C100043F08053D3610C4BDB6903F080537B604E
:101C20007B680A4B5B68FB60FB6823F0E063FB604A
:101C3000FB6843F00073FB60044AFB68536000BF1D
:101C40001437BD4680BC70470010024000000140C0
:101C500080B584B000AF78607B681B68B3F1804FBB
:101C600014D1194BDB69184A43F00103D361164BB9
:101C7000DB6903F00103FB60FB68002200211C20EC
:101C800000F0BFFB1C2000F0D8FB18E07B681B684D
:101C90000E4A934213D10C4BDB690B4A43F002030B
:101CA000D361094BDB6903F00203BB60BB68002210
:101CB00000211D2000F0A5FB1D2000F0BEFB00BF91
:101CC0001037BD4680BD00BF001002400004004038
:101CD00080B588B000AF786007F1100300221A6069
:101CE0005A609A60DA607B681B680F4A934217D18A
:101CF0000E4B9B690D4A43F0040393610B4B9B69A8
:101D000003F00403FB60FB6840233B6102237B611B
:101D10000223FB6107F110031946054800F0A8FBF8
:101D200000BF2037BD4680BD0004004000100240C7
:101D30000008014080B588B000AF786007F110035B
:101D400000221A605A609A60DA607B681B681B4A3E
:101D500093422FD11A4BDB69194A43F40033D36104
:101D6000174BDB6903F40033FB60FB68144B9B6982
:101D7000134A43F004039361114B9B6903F004037E
:101D8000BB60BB6804233B6102237B610323FB61CF
:101D900007F1100319460B4800F06AFB08233B616A
:101DA00000237B610023BB6107F11003194605483E
:101DB00000F05EFB00BF2037BD4680BD0044004000
:101DC000001002400008014080B400AFFEE780B47C
:101DD00000AFFEE780B400AFFEE780B400AFFEE7DF
:101DE00080B400AFFEE780B400AF00BFBD4680BC4A
:101DF000704780B400AF00BFBD4680BC704780B460
:101E000000AF00BFBD4680BC704780B500AF00F09A
:101E1000E1F900BF80BD000080B500AF024801F0CD
:101E2000C1FA00BF80BD00BFE801002080B500AF4F
:101E3000024801F0B7FA00BF80BD00BFA00100203A
:101E400080B500AF4FF4005000F0DEFC00BF80BD55
:101E500080B586B000AF7860144A154BD31A7B6109
:101E60007B693B61134B1B68002B02D1114B124A5B
:101E70001A60104B1A687B6813443A699A4207D279
:101E800002F00AFA03460C221A604FF0FF3309E011
:101E9000084B1B68FB60074B1A687B681344054AB4
:101EA0001360FB6818461837BD4680BD00500020FF
:101EB0000004000060010020A805002080B400AFED
:101EC00000BFBD4680BC704780B485B000AFF860ED
:101ED0007A601A460B467B8113463B81BB69202BF7
:101EE00018D0BB69202B1DDCBB691E2B03D0BB693E
:101EF0001F2B08D016E07A89FB681A613B891A0407
:101F00007B681A610EE07A89FB681A613A897B68FE
:101F10001A6107E07B891A04FB681A613A897B68B9
:101F20001A6100BF00BF1437BD4680BC7047000077
:101F300080B584B002AF786039607B682A2B1CD0F2
:101F40007B682A2B24DC7B68282B03D07B68292B19
:101F50000AD01DE03B68009308230F4A4FF48061CC
:101F60000E48FFF7B1FF13E03B68009310230A4AC5
:101F700020210948FFF7A8FF0AE03B6800934FF4CF
:101F80008073064A4FF480610348FFF79DFF00BF4E
:101F900000BF0837BD4680BD000C0140000801406D
:101FA00080B487B000AFF8607A601A460B467B8138
:101FB00013463B81FB689A687B891340002B02D053
:101FC0000123FB7501E00023FB757B689A683B8960
:101FD0001340002B02D00123BB7501E00023BB7529
:101FE000FB7D002B04D1BB7D002B01D0202310E012
:101FF000FB7D002B04D0BB7D002B01D11E2308E00C
:10200000FB7D002B04D0BB7D002B01D01F2300E003
:102010001D2318461C37BD4680BC704780B582B072
:1020200000AF78607B682A2B1AD07B682A2B21DCD2
:102030007B68282B03D07B68292B09D01AE0082362
:102040000F4A4FF480610F48FFF7AAFF034612E0E2
:1020500010230B4A20210A48FFF7A2FF03460AE09B
:102060004FF48073074A4FF480610548FFF798FFEB
:10207000034600E01D2318460837BD4680BD00BF5B
:10208000000C01400008014080B483B000AF7860CC
:102090000B467B807B881A047B681A6100BF0C3773
:1020A000BD4680BC7047000080B582B000AF78604C
:1020B0007B682A2B14D07B682A2B17DC7B68282BA3
:1020C00003D07B68292B06D010E04FF480610948CB
:1020D000FFF7DAFF0AE020210748FFF7D5FF05E008
:1020E0004FF480610448FFF7CFFF00BF00BF0837FF
:1020F000BD4680BD00080140000C01400C480D4960
:102100000D4A002302E0D458C4500433C4188C4252
:10211000F9D30A4A0A4C002301E013600432A242B8
:10212000FBD3FFF7CBFE02F0BDF8FFF761F8704775
:1021300000000020BC000020F84B0008BC0000207C
:10214000A8050020FEE7000080B500AF084B1B6823
:10215000074A43F010031360032000F047F9002002
:1021600000F008F8FFF742FD0023184680BD00BFCD
:102170000020024080B582B000AF7860124B1A6830
:10218000124B1B7819464FF47A73B3FBF1F3B2FB91
:10219000F3F3184600F05FF90346002B01D001234A
:1021A0000EE07B680F2B0AD8002279684FF0FF30D1
:1021B00000F027F9064A7B681360002300E0012342
:1021C00018460837BD4680BD4C0000205400002052
:1021D0005000002080B400AF054B1B781A46054B19
:1021E0001B681344034A136000BFBD4680BC7047A0
:1021F000540000209405002080B400AF024B1B68FF
:102200001846BD4680BC70479405002080B584B058
:1022100000AF7860FFF7F0FFB8607B68FB60FB6899
:10222000B3F1FF3F05D00A4B1B781A46FB681344F5
:10223000FB6000BFFFF7E0FF0246BB68D31AFA68F5
:102240009A42F7D800BF00BF1037BD4680BD00BF1F
:102250005400002080B485B000AF78607B6803F044
:102260000703FB600C4BDB68BB60BA684FF6FF03EB
:102270001340BB60FB681A02BB68134343F0BF63A3
:1022800043F40033BB60044ABB68D36000BF14371B
:10229000BD4680BC704700BF00ED00E080B400AFD9
:1022A000044BDB681B0A03F007031846BD4680BCDD
:1022B000704700BF00ED00E080B483B000AF03467C
:1022C000FB7197F90730002B0BDBFB7903F01F0242
:1022D000064997F907305B09012000FA02F241F83C
:1022E000232000BF0C37BD4680BC704700E100E0F2
:1022F00080B483B000AF03463960FB7197F90730B3
:10230000002B0ADB3B68DAB20C4997F9073012015F
:10231000D2B20B4483F800230AE03B68DAB20849E2
:10232000FB7903F00F03043B1201D2B20B441A767F
:1023300000BF0C37BD4680BC704700BF00E100E025
:1023400000ED00E080B489B000AFF860B9607A6059
:10235000FB6803F00703FB61FB69C3F10703042B70
:1023600028BF0423BB61FB690433062B02D9FB6938
:10237000033B00E000237B614FF0FF32BB6902FAB0
:1023800003F3DA43BB681A407B699A404FF0FF3190
:102390007B6901FA03F3D9437B680B40134318466A
:1023A0002437BD4680BC704780B582B000AF7860EE
:1023B0007B68013BB3F1807F01D301230FE00A4A20
:1023C0007B68013B53600F214FF0FF30FFF790FF18
:1023D000054B00229A60044B07221A60002318461E
:1023E0000837BD4680BD00BF10E000E080B582B078
:1023F00000AF78607868FFF72DFF00BF0837BD4653
:1024000080BD80B586B000AF0346B9607A60FB73CB
:1024100000237B61FFF742FF78617A68B9687869C9
:10242000FFF790FF024697F90F3011461846FFF765
:102430005FFF00BF1837BD4680BD80B582B000AFDA
:102440000346FB7197F907301846FFF735FF00BFC9
:102450000837BD4680BD80B582B000AF786078682F
:10246000FFF7A2FF034618460837BD4680BD0000AF
:1024700080B48BB000AF7860396000237B620023AA
:102480003B6269E101227B6A02FA03F3FB613B686C
:102490001B68FA691340BB61BA69FB699A4240F054
:1024A00058813B685B689A4A93425ED0984A93424F
:1024B00075D8984A934258D0964A93426FD8964A14
:1024C000934252D0944A934269D8944A93424CD052
:1024D000924A934263D8924A934246D0904A93429A
:1024E0005DD8122B2AD8122B59D801A252F823F00A
:1024F0006B25000845250008572500089925000888
:102500009F2500089F2500089F2500089F2500089B
:102510009F2500089F2500089F2500089F2500088B
:102520009F2500089F2500089F2500089F2500087B
:102530009F2500084D25000861250008794A93422F
:1025400013D02CE03B68DB683B6229E03B68DB682A
:1025500004333B6224E03B68DB6808333B621FE0E6
:102560003B68DB680C333B621AE03B689B68002BDE
:1025700002D104233B6213E03B689B68012B05D129
:1025800008233B627B68FA691A6109E008233B6211
:102590007B68FA695A6103E000233B6200E000BFF8
:1025A000BB69FF2B01D87B6801E07B6804337B614A
:1025B000BB69FF2B02D87B6A9B0002E07B6A083B69
:1025C0009B003B617B691A680F213B6901FA03F3A9
:1025D000DB431A40396A3B6901FA03F31A437B690A
:1025E0001A603B685B6803F08053002B00F0B180F9
:1025F0004D4B9B694C4A43F0010393614A4B9B69E5
:1026000003F00103BB60BB68484A7B6A9B08023346
:1026100052F82330FB607B6A03F003039B000F2218
:1026200002FA03F3DB43FA681340FB607B68404A1D
:10263000934213D07B683F4A93420DD07B683E4A59
:10264000934207D07B683D4A934201D1032306E0C1
:10265000042304E0022302E0012300E000237A6A5D
:1026600002F0030292009340FA681343FB602F4983
:102670007B6A9B080233FA6841F823203B685B6859
:1026800003F48033002B06D02D4B1A682C49BB690C
:1026900013430B6006E02A4B1A68BB69DB432849E9
:1026A00013400B603B685B6803F40033002B06D0DB
:1026B000234B5A682249BB6913434B6006E0204B09
:1026C0005A68BB69DB431E4913404B603B685B683B
:1026D00003F48013002B06D0194B9A681849BB6984
:1026E00013438B6006E0164B9A68BB69DB431449C1
:1026F00013408B603B685B6803F40013002B21D010
:102700000F4BDA680E49BB691343CB6021E000BF71
:1027100000003210000031100000221000002110D3
:1027200000001210000011100010024000000140D3
:1027300000080140000C014000100140001401405D
:10274000000401400B4BDA68BB69DB4309491340C5
:10275000CB607B6A01337B623B681A687B6A22FA32
:1027600003F3002B7FF48EAE00BF00BF2C37BD46B5
:1027700080BC70470004014080B485B000AF786031
:102780000B467B807B689A687B881340002B02D0C5
:102790000123FB7301E00023FB73FB7B1846143716
:1027A000BD4680BC704780B483B000AF78600B46F4
:1027B0007B8013467B707B78002B03D07A887B6804
:1027C0001A6103E07B881A047B681A6100BF0C372A
:1027D000BD4680BC704780B485B000AF78600B46C2
:1027E0007B807B68DB68FB607A88FB6813401A0497
:1027F000FB68D9437B880B401A437B681A6100BF92
:102800001437BD4680BC704780B582B000AF034628
:10281000FB80084B5A69FB881340002B06D0054A01
:10282000FB885361FB881846FEF7F7FE00BF0837A8
:10283000BD4680BD0004014080B586B000AF786021
:102840007B68002B01D101236CE27B681B6803F0DD
:102850000103002B00F08780924B5B6803F00C03B0
:10286000042B0CD08F4B5B6803F00C03082B12D1A8
:102870008C4B5B6803F48033B3F5803F0BD1894BFD
:102880001B6803F40033002B6CD07B685B68002B63
:1028900068D1012346E27B685B68B3F5803F06D1CF
:1028A000804B1B687F4A43F4803313602EE07B68C3
:1028B0005B68002B0CD17B4B1B687A4A23F4803376
:1028C0001360784B1B68774A23F4802313601DE064
:1028D0007B685B68B3F5A02F0CD1724B1B68714A03
:1028E00043F4802313606F4B1B686E4A43F48033BC
:1028F00013600BE06B4B1B686A4A23F48033136050
:10290000684B1B68674A23F4802313607B685B680D
:10291000002B13D0FFF770FC386108E0FFF76CFC68
:1029200002463B69D31A642B01D90323FAE15D4BBC
:102930001B6803F40033002BF0D014E0FFF75CFCBD
:10294000386108E0FFF758FC02463B69D31A642B54
:1029500001D90323E6E1534B1B6803F40033002B3A
:10296000F0D100E000BF7B681B6803F00203002B7E
:1029700063D04C4B5B6803F00C03002B0BD0494B2E
:102980005B6803F00C03082B1CD1464B5B6803F417
:102990008033002B16D1434B1B6803F00203002B3E
:1029A00005D07B681B69012B01D00123BAE13D4BA7
:1029B0001B6823F0F8027B685B69DB00394913432D
:1029C0000B603AE07B681B69002B20D0364B01225C
:1029D0001A60FFF711FC386108E0FFF70DFC0246B2
:1029E0003B69D31A022B01D903239BE12D4B1B68B2
:1029F00003F00203002BF0D02A4B1B6823F0F802EF
:102A00007B685B69DB00274913430B6015E0264BAD
:102A100000221A60FFF7F0FB386108E0FFF7ECFBDB
:102A200002463B69D31A022B01D903237AE11D4BDD
:102A30001B6803F00203002BF0D17B681B6803F0D6
:102A40000803002B3AD07B689B69002B19D0174BE9
:102A500001221A60FFF7D0FB386108E0FFF7CCFBDA
:102A600002463B69D31A022B01D903235AE10D4BCD
:102A70005B6A03F00203002BF0D0012000F0D8FACB
:102A80001CE00A4B00221A60FFF7B6FB38610FE02A
:102A9000FFF7B2FB02463B69D31A022B08D9032386
:102AA00040E100BF00100240000042428004424268
:102AB0009E4B5B6A03F00203002BE9D17B681B6825
:102AC00003F00403002B00F0A6800023FB75974B56
:102AD000DB6903F08053002B0DD1944BDB69934AE3
:102AE00043F08053D361914BDB6903F08053BB60AB
:102AF000BB680123FB758E4B1B6803F48073002BAE
:102B000018D18B4B1B688A4A43F480731360FFF71C
:102B100073FB386108E0FFF76FFB02463B69D31A8D
:102B2000642B01D90323FDE0814B1B6803F4807300
:102B3000002BF0D07B68DB68012B06D17B4B1B6A36
:102B40007A4A43F0010313622DE07B68DB68002BB7
:102B50000CD1764B1B6A754A23F001031362734B49
:102B60001B6A724A23F0040313621CE07B68DB6873
:102B7000052B0CD16D4B1B6A6C4A43F004031362A6
:102B80006A4B1B6A694A43F0010313620BE0674B0F
:102B90001B6A664A23F001031362644B1B6A634A93
:102BA00023F0040313627B68DB68002B15D0FFF76A
:102BB00023FB38610AE0FFF71FFB02463B69D31A8B
:102BC00041F28832934201D90323ABE0574B1B6A91
:102BD00003F00203002BEED014E0FFF70DFB386189
:102BE0000AE0FFF709FB02463B69D31A41F288323B
:102BF000934201D9032395E04C4B1B6A03F0020377
:102C0000002BEED1FB7D012B05D1484BDB69474AF8
:102C100023F08053D3617B68DB69002B00F0818057
:102C2000424B5B6803F00C03082B61D07B68DB69C7
:102C3000022B46D13F4B00221A60FFF7DDFA3861C4
:102C400008E0FFF7D9FA02463B69D31A022B01D9F3
:102C5000032367E0354B1B6803F00073002BF0D1B2
:102C60007B681B6AB3F5803F08D1304B5B6823F467
:102C700000327B689B682D4913434B602B4B5B688C
:102C800023F474127B68196A7B685B6A0B432749DB
:102C900013434B60274B01221A60FFF7ADFA3861EE
:102CA00008E0FFF7A9FA02463B69D31A022B01D9C3
:102CB000032337E01D4B1B6803F00073002BF0D09B
:102CC0002FE01C4B00221A60FFF796FA386108E0EB
:102CD000FFF792FA02463B69D31A022B01D903236C
:102CE00020E0124B1B6803F00073002BF0D118E0BA
:102CF0007B68DB69012B01D1012313E00B4B5B687F
:102D0000FB60FB6803F480327B681B6A9A4206D141
:102D1000FB6803F470127B685B6A9A4201D001235E
:102D200000E0002318461837BD4680BD0010024061
:102D3000007000406000424280B584B000AF78600F
:102D400039607B68002B01D10123D0E06A4B1B68FE
:102D500003F007033A689A4210D9674B1B6823F0C7
:102D6000070265493B6813430B60634B1B6803F024
:102D700007033A689A4201D00123B8E07B681B68D8
:102D800003F00203002B20D07B681B6803F00403D0
:102D9000002B05D0594B5B68584A43F4E0635360FD
:102DA0007B681B6803F00803002B05D0534B5B685E
:102DB000524A43F460535360504B5B6823F0F00277
:102DC0007B689B684D4913434B607B681B6803F02D
:102DD0000103002B40D07B685B68012B07D1474B78
:102DE0001B6803F40033002B15D101237FE07B68BF
:102DF0005B68022B07D1414B1B6803F00073002B6B
:102E000009D1012373E03D4B1B6803F00203002B43
:102E100001D101236BE0394B5B6823F003027B682F
:102E20005B68364913434B60FFF7E6F9F8600AE048
:102E3000FFF7E2F90246FB68D31A41F28832934267
:102E400001D9032353E02D4B5B6803F00C027B6830
:102E50005B689B009A42EBD1274B1B6803F007038A
:102E60003A689A4210D2244B1B6823F00702224989
:102E70003B6813430B60204B1B6803F007033A6861
:102E80009A4201D0012332E07B681B6803F00403FF
:102E9000002B08D0194B5B6823F4E0627B68DB6889
:102EA000164913434B607B681B6803F00803002B33
:102EB00009D0124B5B6823F460527B681B69DB000E
:102EC0000E4913434B6000F021F802460B4B5B6840
:102ED0001B0903F00F030A49CB5C22FA03F3094AEA
:102EE0001360094B1B681846FFF744F90023184686
:102EF0001037BD4680BD00BF0020024000100240D8
:102F0000A44B00084C0000205000002090B48AB070
:102F100000AF2A4B3C1D0FCB84E80F0040F2012389
:102F20003B800023FB610023BB6100237B62002305
:102F30007B6100233B62224B5B68FB61FB6903F012
:102F40000C03042B02D0082B03D02DE01D4B3B6259
:102F50002DE0FB699B0C03F00F0307F128021344DB
:102F600013F8243C7B61FB6903F48033002B13D0FE
:102F7000134B5B685B0C03F0010307F12802134459
:102F800013F8283CBB617B690E4A02FB03F2BB6964
:102F9000B2FBF3F37B6204E07B690B4A02FB03F3B1
:102FA0007B627B6A3B6202E0064B3B6200BF3B6A8E
:102FB00018462837BD4690BC704700BF944B0008A8
:102FC0000010024000127A0000093D0080B400AFFA
:102FD000024B1B681846BD4680BC70474C00002061
:102FE00080B500AFFFF7F2FF0246054B5B681B0A96
:102FF00003F007030349CB5C22FA03F3184680BDB4
:1030000000100240B44B000880B500AFFFF7DEFFB0
:103010000246054B5B68DB0A03F007030349CB5C00
:1030200022FA03F3184680BD00100240B44B00089A
:1030300080B485B000AF78600A4B1B680A4AA2FBD7
:1030400003235B0A7A6802FB03F3FB6000BFFB68A3
:103050005A1EFA60002BF9D100BF00BF1437BD46DD
:1030600080BC70474C000020D34D621080B582B008
:1030700000AF78607B68002B01D1012341E07B68C1
:1030800093F83D30DBB2002B06D17B68002283F839
:103090003C207868FEF7DCFD7B68022283F83D2047
:1030A0007B681A687B6804331946104600F028FCD8
:1030B0007B68012283F846207B68012283F83E204A
:1030C0007B68012283F83F207B68012283F840203F
:1030D0007B68012283F841207B68012283F842202B
:1030E0007B68012283F843207B68012283F8442017
:1030F0007B68012283F845207B68012283F83D200C
:10310000002318460837BD4680BD000080B485B056
:1031100000AF78607B6893F83D30DBB2012B01D0C3
:1031200001233AE07B68022283F83D207B681B681C
:10313000DA687B681B6842F00102DA607B681B6812
:10314000184A93420ED07B681B68B3F1804F09D0B8
:103150007B681B68144A934204D07B681B68134A3F
:10316000934211D17B681B689B6803F00703FB60E7
:10317000FB68062B10D07B681B681A687B681B688D
:1031800042F001021A6007E07B681B681A687B68DE
:103190001B6842F001021A60002318461437BD462E
:1031A00080BC7047002C0140000400400008004033
:1031B00080B582B000AF78607B68002B01D101231D
:1031C00041E07B6893F83D30DBB2002B06D17B6891
:1031D000002283F83C20786800F039F87B680222EE
:1031E00083F83D207B681A687B68043319461046D3
:1031F00000F086FB7B68012283F846207B68012271
:1032000083F83E207B68012283F83F207B680122FF
:1032100083F840207B68012283F841207B680122EB
:1032200083F842207B68012283F843207B680122D7
:1032300083F844207B68012283F845207B680122C3
:1032400083F83D20002318460837BD4680BD80B472
:1032500083B000AF786000BF0C37BD4680BC7047BC
:1032600080B584B000AF786039603B68002B09D12D
:103270007B6893F83E30DBB2012B14BF012300239F
:10328000DBB222E03B68042B09D17B6893F83F3026
:10329000DBB2012B14BF01230023DBB215E03B6836
:1032A000082B09D17B6893F84030DBB2012B14BFA7
:1032B00001230023DBB208E07B6893F84130DBB2E6
:1032C000012B14BF01230023DBB2002B01D001230B
:1032D0005EE03B68002B04D17B68022283F83E202D
:1032E00013E03B68042B04D17B68022283F83F2063
:1032F0000BE03B68082B04D17B68022283F8402056
:1033000003E07B68022283F841207B681B6801226E
:103310003968184600F074FD7B681B681E4A9342AA
:1033200007D17B681B685A6C7B681B6842F40042BB
:103330005A647B681B68184A93420ED07B681B68EE
:10334000B3F1804F09D07B681B68144A934204D0C4
:103350007B681B68124A934211D17B681B689B688B
:1033600003F00703FB60FB68062B10D07B681B682B
:103370001A687B681B6842F001021A6007E07B68EC
:103380001B681A687B681B6842F001021A60002300
:1033900018461037BD4680BD002C01400004004097
:1033A0000008004080B582B000AF78607B681B6881
:1033B0001B6903F00203022B22D17B681B68DB68C8
:1033C00003F00203022B1BD17B681B686FF0020223
:1033D0001A617B6801221A777B681B689B6903F07E
:1033E0000303002B03D0786800F06FFA05E07868DB
:1033F00000F062FA786800F071FA7B6800221A77B0
:103400007B681B681B6903F00403042B22D17B68D3
:103410001B68DB6803F00403042B1BD17B681B686B
:103420006FF004021A617B6802221A777B681B68BE
:103430009B6903F44073002B03D0786800F045FAD1
:1034400005E0786800F038FA786800F047FA7B68A1
:1034500000221A777B681B681B6903F00803082B9E
:1034600022D17B681B68DB6803F00803082B1BD1A3
:103470007B681B686FF008021A617B6804221A7768
:103480007B681B68DB6903F00303002B03D07868BB
:1034900000F01BFA05E0786800F00EFA786800F09A
:1034A0001DFA7B6800221A777B681B681B6903F092
:1034B0001003102B22D17B681B68DB6803F010031C
:1034C000102B1BD17B681B686FF010021A617B68A0
:1034D00008221A777B681B68DB6903F44073002BB2
:1034E00003D0786800F0F1F905E0786800F0E4F9BD
:1034F000786800F0F3F97B6800221A777B681B6814
:103500001B6903F00103012B0ED17B681B68DB688C
:1035100003F00103012B07D17B681B686FF00102E8
:103520001A617868FEF766F87B681B681B6903F010
:103530008003802B0ED17B681B68DB6803F080035F
:10354000802B07D17B681B686FF080021A61786856
:1035500000F0E1FC7B681B681B6903F04003402B13
:103560000ED17B681B68DB6803F04003402B07D15A
:103570007B681B686FF040021A61786800F0B7F949
:103580007B681B681B6903F02003202B0ED17B682E
:103590001B68DB6803F02003202B07D17B681B68C6
:1035A0006FF020021A61786800F0ACFC00BF0837A9
:1035B000BD4680BD80B584B000AFF860B9607A6068
:1035C000FB6893F83C30012B01D10223ACE0FB688F
:1035D000012283F83C207B680C2B00F29F8001A223
:1035E00052F823F0193600081D3700081D3700086F
:1035F0001D370008593600081D3700081D37000820
:103600001D3700089B3600081D3700081D370008CD
:103610001D370008DB360008FB681B68B9681846D0
:1036200000F0D0F9FB681B689A69FB681B6842F0E0
:1036300008029A61FB681B689A69FB681B6822F0A4
:1036400004029A61FB681B689969BB681A69FB6888
:103650001B680A439A6162E0FB681B68B9681846F8
:1036600000F016FAFB681B689A69FB681B6842F455
:1036700000629A61FB681B689A69FB681B6822F408
:1036800080629A61FB681B689969BB681B691A02B2
:10369000FB681B680A439A6141E0FB681B68B968D4
:1036A000184600F05FFAFB681B68DA69FB681B6864
:1036B00042F00802DA61FB681B68DA69FB681B6884
:1036C00022F00402DA61FB681B68D969BB681A69D9
:1036D000FB681B680A43DA6121E0FB681B68B96874
:1036E000184600F0A9FAFB681B68DA69FB681B68DA
:1036F00042F40062DA61FB681B68DA69FB681B68E8
:1037000022F48062DA61FB681B68D969BB681B69B7
:103710001A02FB681B680A43DA6100E000BFFB681D
:10372000002283F83C20002318461037BD4680BD98
:1037300080B584B000AF786039607B6893F83C3026
:10374000012B01D10223B3E07B68012283F83C20E6
:103750007B68022283F83D207B681B689B68FB60C6
:10376000FB6823F07703FB60FB6823F47F43FB6077
:103770007B681B68FA689A603B681B68B3F5005F5A
:103780003ED0B3F5005F00F28780B3F5805F00F0B4
:103790008580B3F5805F7FD8702B1AD0702B7BD8D3
:1037A000602B50D0602B77D8502B3CD0502B73D847
:1037B000402B58D0402B6FD8302B64D0302B6BD897
:1037C000202B60D0202B67D8002B5CD0102B5AD038
:1037D00062E07B6818683B6899683B685A683B6898
:1037E000DB6800F0EEFA7B681B689B68FB60FB6897
:1037F00043F07703FB607B681B68FA689A604EE0D1
:103800007B6818683B6899683B685A683B68DB6866
:1038100000F0D7FA7B681B689A687B681B6842F4E3
:1038200080429A603BE07B6818683B6859683B6857
:10383000DB681A4600F04EFA7B681B685021184678
:1038400000F0A5FA2BE07B6818683B6859683B6874
:10385000DB681A4600F06CFA7B681B68602118462A
:1038600000F095FA1BE07B6818683B6859683B6874
:10387000DB681A4600F02EFA7B681B684021184668
:1038800000F085FA0BE07B681A683B681B681946F4
:10389000104600F07CFA02E000BF00E000BF7B6849
:1038A000012283F83D207B68002283F83C2000231E
:1038B00018461037BD4680BD80B483B000AF786035
:1038C00000BF0C37BD4680BC704780B483B000AFEA
:1038D000786000BF0C37BD4680BC704780B483B0B1
:1038E00000AF786000BF0C37BD4680BC704780B425
:1038F00083B000AF786000BF0C37BD4680BC704716
:1039000080B485B000AF786039607B681B68FB606D
:103910007B68294A93420BD07B68B3F1804F07D074
:103920007B68264A934203D07B68254A934208D19C
:10393000FB6823F07003FB603B685B68FA68134325
:10394000FB607B681C4A93420BD07B68B3F1804FCD
:1039500007D07B68194A934203D07B68184A934288
:1039600008D1FB6823F44073FB603B68DB68FA68AE
:103970001343FB60FB6823F080023B685B691343E1
:10398000FB607B68FA681A603B689A687B68DA6259
:103990003B681A687B689A627B68074A934203D146
:1039A0003B681A697B681A637B6801225A6100BF11
:1039B0001437BD4680BC7047002C01400004004015
:1039C0000008004080B487B000AF786039607B6841
:1039D0001B6A23F001027B681A627B681B6A7B61A9
:1039E0007B685B683B617B689B69FB60FB6823F0DD
:1039F0007003FB60FB6823F00303FB603B681B68FC
:103A0000FA681343FB607B6923F002037B613B6828
:103A10009B687A6913437B617B681C4A93420CD193
:103A20007B6923F008037B613B68DB687A69134399
:103A30007B617B6923F004037B617B68134A9342BB
:103A400011D13B6923F480733B613B6923F400731C
:103A50003B613B685B693A6913433B613B689B6927
:103A60003A6913433B617B683A695A607B68FA683C
:103A70009A613B685A687B685A637B687A691A6204
:103A800000BF1C37BD4680BC704700BF002C014002
:103A900080B487B000AF786039607B681B6A23F020
:103AA00010027B681A627B681B6A7B617B685B68BB
:103AB0003B617B689B69FB60FB6823F4E043FB6030
:103AC000FB6823F44073FB603B681B681B02FA68C9
:103AD0001343FB607B6923F020037B613B689B6899
:103AE0001B017A6913437B617B681D4A93420DD1A8
:103AF0007B6923F080037B613B68DB681B017A698B
:103B000013437B617B6923F040037B617B68144A2C
:103B1000934213D13B6923F480633B613B6923F4F7
:103B200000633B613B685B699B003A6913433B61FF
:103B30003B689B699B003A6913433B617B683A6928
:103B40005A607B68FA689A613B685A687B689A6336
:103B50007B687A691A6200BF1C37BD4680BC70471B
:103B6000002C014080B487B000AF786039607B687A
:103B70001B6A23F480727B681A627B681B6A7B6114
:103B80007B685B683B617B68DB69FB60FB6823F0FB
:103B90007003FB60FB6823F00303FB603B681B685A
:103BA000FA681343FB607B6923F400737B613B6815
:103BB0009B681B027A6913437B617B681D4A9342B1
:103BC0000DD17B6923F400637B613B68DB681B02DA
:103BD0007A6913437B617B6923F480637B617B6833
:103BE000144A934213D13B6923F480533B613B69F0
:103BF00023F400533B613B685B691B013A69134343
:103C00003B613B689B691B013A6913433B617B68DD
:103C10003A695A607B68FA68DA613B685A687B687F
:103C2000DA637B687A691A6200BF1C37BD4680BCC4
:103C3000704700BF002C014080B487B000AF7860AF
:103C400039607B681B6A23F480527B681A627B6848
:103C50001B6A3B617B685B687B617B68DB69FB603F
:103C6000FB6823F4E043FB60FB6823F44073FB60D4
:103C70003B681B681B02FA681343FB603B6923F433
:103C800000533B613B689B681B033A6913433B61EC
:103C90007B680F4A934209D17B6923F480437B619F
:103CA0003B685B699B017A6913437B617B687A6936
:103CB0005A607B68FA68DA613B685A687B681A6404
:103CC0007B683A691A6200BF1C37BD4680BC7047EA
:103CD000002C014080B487B000AFF860B9607A6012
:103CE000FB681B6A7B61FB681B6A23F00102FB68AF
:103CF0001A62FB689B693B613B6923F0F0033B61FF
:103D00007B681B013A6913433B617B6923F00A031B
:103D10007B617A69BB6813437B61FB683A699A618E
:103D2000FB687A691A6200BF1C37BD4680BC7047C9
:103D300080B487B000AFF860B9607A60FB681B6A36
:103D400023F01002FB681A62FB689B697B61FB68C9
:103D50001B6A3B617B6923F470437B617B681B03B7
:103D60007A6913437B613B6923F0A0033B61BB6825
:103D70001B013A6913433B61FB687A699A61FB68EE
:103D80003A691A6200BF1C37BD4680BC704780B4D8
:103D900085B000AF786039607B689B68FB60FB682A
:103DA00023F07003FB603A68FB68134343F007039A
:103DB000FB607B68FA689A6000BF1437BD4680BC20
:103DC000704780B487B000AFF860B9607A603B603C
:103DD000FB689B687B617B6923F47F437B613B6865
:103DE0001A027B681A43BB6813437A6913437B61E9
:103DF000FB687A699A6000BF1C37BD4680BC70477B
:103E000080B487B000AFF860B9607A60BB6803F037
:103E10001F03012202FA03F37B61FB681A6A7B69C4
:103E2000DB431A40FB681A62FB681A6ABB6803F03E
:103E30001F03796801FA03F31A43FB681A6200BF93
:103E40001C37BD4680BC704780B485B000AF786039
:103E500039607B6893F83C30012B01D1022346E0A6
:103E60007B68012283F83C207B68022283F83D2096
:103E70007B681B685B68FB607B681B689B68BB603A
:103E8000FB6823F07003FB603B681B68FA68134310
:103E9000FB607B681B68FA685A607B681B68164A7F
:103EA00093420ED07B681B68B3F1804F09D07B68CA
:103EB0001B68124A934204D07B681B68104A9342E5
:103EC0000CD1BB6823F08003BB603B685B68BA68B9
:103ED0001343BB607B681B68BA689A607B680122E9
:103EE00083F83D207B68002283F83C20002318469D
:103EF0001437BD4680BC7047002C014000040040D0
:103F00000008004080B483B000AF786000BF0C3779
:103F1000BD4680BC704780B483B000AF786000BFFE
:103F20000C37BD4680BC704780B582B000AF78606A
:103F30007B68002B01D101233FE07B6893F83D3083
:103F4000DBB2002B06D17B68002283F83C20786826
:103F5000FDF7F0FE7B68242283F83D207B681B6818
:103F6000DA687B681B6822F40052DA60786800F037
:103F700005F97B681B681A697B681B6822F490420C
:103F80001A617B681B685A697B681B6822F02A02E9
:103F90005A617B681B68DA687B681B6842F40052D0
:103FA000DA607B6800221A647B68202283F83D2057
:103FB0007B68202283F83E20002318460837BD4640
:103FC00080BD80B58AB002AFF860B9603B6013462F
:103FD000FB8000237B61FB6893F83D30DBB2202B34
:103FE0007CD1BB68002B02D0FB88002B01D10123C0
:103FF00075E0FB6893F83C30012B01D102236EE0A1
:10400000FB68012283F83C20FB6800221A64FB68ED
:10401000212283F83D20FEF7EFF87861FB68FA88EB
:104020009A84FB68FA88DA84FB689B68B3F5805F42
:1040300008D1FB681B69002B04D10023FB61BB681E
:10404000BB6103E0BB68FB610023BB61FB6800222E
:1040500083F83C202AE03B6800937B6900228021A2
:10406000F86800F040F80346002B01D0032336E047
:10407000FB69002B0BD1BB691B881A46FB681B68C8
:10408000C2F308025A60BB690233BB6107E0FB69F7
:104090001A78FB681B685A60FB690133FB61FB6897
:1040A000DB8C9BB2013B9AB2FB68DA84FB68DB8C49
:1040B0009BB2002BCFD13B6800937B69002240214B
:1040C000F86800F010F80346002B01D0032306E047
:1040D000FB68202283F83D20002300E002231846DD
:1040E0002037BD4680BD80B584B000AFF860B960B0
:1040F0003B601346FB712CE0BB69B3F1FF3F28D056
:10410000BB69002B07D0FEF777F802463B68D31A4D
:10411000BA699A421DD2FB681B68DA68FB681B68A3
:1041200022F4D072DA60FB681B685A69FB681B686E
:1041300022F001025A61FB68202283F83D20FB68CF
:10414000202283F83E20FB68002283F83C200323D2
:104150000FE0FB681B681A68BB681340BA689A4294
:104160000CBF01230023DBB21A46FB799A42C3D06D
:10417000002318461037BD4680BD000080B584B0CE
:1041800000AF78607B681B681B6923F440517B6833
:10419000DA687B681B680A431A617B689A687B68E7
:1041A0001B691A437B685B691343BB607B681B68B0
:1041B000DB6823F4B05323F00C037A681268B96803
:1041C0000B43D3607B681B685B6923F440717B6899
:1041D0009A697B681B680A435A617B681B682C4A92
:1041E000934203D1FEF710FFF86002E0FEF7F8FEFD
:1041F000F860FA6813469B0013449A001A447B68DF
:104200005B689B00B2FBF3F3224AA2FB03235B092A
:104210001901FA6813469B0013449A001A447B68FC
:104220005B689B00B2FBF3F21A4BA3FB02035B0932
:10423000642000FB03F3D31A1B013233154AA2FB9F
:1042400003235B0903F0F0031944FA6813469B004B
:1042500013449A001A447B685B689B00B2FBF3F23C
:104260000C4BA3FB02035B09642000FB03F3D31A8E
:104270001B013233074AA2FB03235B0903F00F0241
:104280007B681B680A449A6000BF1037BD4680BD3A
:10429000003801401F85EB51014B1868704700BF83
:1042A0005800002070B500260C4D0D4C641BA41066
:1042B000A64209D100F05CFC00260A4D0A4C641BA2
:1042C000A410A64205D170BD55F8043B98470136AD
:1042D000EEE755F8043B98470136F2E7F04B00084B
:1042E000F04B0008F04B0008F44B00080346024472
:1042F000934200D1704703F8011BF9E70EB46FF049
:10430000004100B59CB01DAB02900690079104914E
:104310000848094953F8042B0591006802A9019344
:1043200000F068F80022029B1A701CB05DF804EBE4
:1043300003B07047580000200802FFFF2DE9F04746
:104340008E6882469E420C4690461F4638D88A891F
:1043500012F4906F32D0256809690133A5EB010989
:1043600065694B4405EB450505EBD5756D109D4220
:1043700038BF1D46530531D5294600F053FB06468C
:1043800050B90C234FF0FF30CAF80030A38943F036
:104390004003A381BDE8F0874A46216900F0CEFAC8
:1043A000A38923F4906343F08003A38126614E44E4
:1043B00026603E466561A5EB0905A560BE4200D9B1
:1043C0003E4632464146206800F0C6FAA36822689D
:1043D0009B1B32440020A3602260DBE72A4600F0EA
:1043E0007BFB06460028E1D15046216900F0CEFA59
:1043F000C7E700002DE9F04F98468B8907461B065A
:104400000D4614469DB00ED50B6963B9402100F0EE
:1044100009FB2860286120B90C233B604FF0FF3076
:10442000D1E040236B610023099320238DF82930CC
:1044300030234FF00109CDF80C80DFF8A4818DF80E
:104440002A3023469A4613F8012B0AB1252AF9D1BE
:10445000BAEB040B0BD05B46224629463846FFF7E1
:104460006DFF013000F0AA80099A5A4409929AF827
:104470000030002B00F0A28000234FF0FF32CDE986
:1044800005230AF1010A049307938DF853301A9318
:104490005446052214F8011B514800F041FA049AD1
:1044A000D8B9D00644BF20238DF85330110744BF3C
:1044B0002B238DF853309AF800302A2B15D0544610
:1044C00000204FF00A0C079A214611F8013B303BBF
:1044D000092B4ED9B0B1079214E0A0EB080309FAFA
:1044E00003F31343A2460493D2E7039B191D1B68F1
:1044F0000391002BBBBF5B4242F00202079307937C
:10450000B8BF049223782E2B0CD163782A2B35D197
:10451000039B02341A1D1B680392002BB8BF4FF097
:10452000FF330593DFF8C8A003225046217800F03E
:10453000F7F940B14023A0EB0A0003FA00F0049B16
:1045400001340343049314F8011B062225488DF817
:10455000281000F0E5F9002838D0234B1BBB039B43
:10456000073323F0070308330393099B334409936C
:1045700067E70C4601200CFB0232A5E700234FF051
:104580000A0C194601340593204610F8012B303AE5
:10459000092A03D9002BC5D00591C3E7044601239E
:1045A0000CFB0121F0E703AB00932A4638460F4B82
:1045B00004A9AFF30080421C0646D6D1AB895B0646
:1045C0003FF52CAF09981DB0BDE8F08F03AB009309
:1045D0002A463846054B04A900F07CF8EBE700BFFB
:1045E000BC4B0008C64B0008000000003D4300081B
:1045F000C24B00082DE9F047164699468A680B69B8
:1046000007469342B8BF1346336091F843200C46E7
:10461000DDF820800AB1013333602368990642BF78
:10462000336802333360256815F0060506D104F1BE
:10463000190AE36832689B1AAB4228DC94F84320DD
:10464000131E226818BF012392062DD4494638460E
:1046500004F14302C047013020D02368E56803F02D
:104660000603042B18BF002532684FF00006A3682C
:1046700008BFAD1A226908BF25EAE5759342C4BF99
:104680009B1AED181A34B5421AD1002008E0012314
:10469000524649463846C047013003D14FF0FF30FB
:1046A000BDE8F0870135C4E73020E11881F8430008
:1046B0005A1C94F845102244023382F84310C5E78F
:1046C0000123224649463846C0470130E6D001362C
:1046D000D9E700002DE9FF470C46277E9146782F49
:1046E00080469A460C9904F1430207D8622F0AD8F3
:1046F000002F00F0D980582F00F0A48004F142066A
:1047000084F842703AE0A7F16303152BF6D801A0B4
:1047100050F823F06D47000881470008FD46000867
:10472000FD460008FD460008FD46000881470008D8
:10473000FD460008FD460008FD460008FD4600084D
:104740008F480008B147000871480008FD4600087E
:10475000FD460008B1480008FD460008B1470008C2
:10476000FD460008FD460008794800080B6804F182
:1047700042061A1D1B680A6084F842300123A4E037
:10478000256808682E0600F104030AD505680B6049
:10479000002D03DA2D236D4284F843300A235E484E
:1047A00019E015F0400F05680B6018BF2DB2EFE758
:1047B0000B682568181D0860280601D51D6802E0F1
:1047C0006906FBD51D886F2F0CBF08230A235248AA
:1047D000002184F843106668002EA8BF2168A660F7
:1047E000A4BF21F0040121600DB9002E4DD0164662
:1047F000B5FBF3F103FB1157C75D06F8017D2F46AA
:10480000BB420D46F4D9082B0BD12368DF0708D52E
:10481000236961689942DEBF302306F8013C06F146
:10482000FF36921B22614B4621464046CDF800A040
:1048300003AAFFF7DFFE01304CD14FF0FF3004B088
:10484000BDE8F087344884F845700E68236856F850
:10485000045B1F060E6014D5D90744BF43F0200344
:1048600023601DB9236823F0200323601023AFE7E2
:10487000236843F0200323607823284884F84530D8
:10488000E3E75E0648BFADB2E6E71646BBE70B6856
:1048900026681D1D60690D6035061B6801D518600E
:1048A00002E07106FBD51880002316462361BAE7A3
:1048B0000B681A1D0A601E6800213046626800F00D
:1048C0002FF808B1801B606063682361002384F8BF
:1048D0004330A8E73246494640462369D047013075
:1048E000ABD023689B0713D4E068039B9842B8BF02
:1048F0001846A4E70123324649464046D0470130D6
:104900009BD00135E36803995B1AAB42F2DCEBE71D
:10491000002504F11906F5E7CD4B0008DE4B000831
:10492000034610B5C9B202449342184601D1002093
:1049300003E0047801338C42F6D110BD0A44914261
:1049400000F1FF3300D1704710B511F8014B9142CF
:1049500003F8014FF9D110BD884210B501EB0204F4
:1049600002D98442234607D8431EA14208D011F839
:10497000012B03F8012FF8E7014602448A4200D1D7
:1049800010BD13F8014D02F8014DF7E738B50546A3
:10499000002943D051F8043C0C1F002BB8BFE41889
:1049A00000F0D0F81E4A1368104633B963601460F3
:1049B0002846BDE8384000F0CBB8A3420AD92168A8
:1049C0006218934201BF1A685B68521822606360E4
:1049D0000460EDE71A465B680BB1A342FAD911688F
:1049E0005018A0420BD12068014450188342116036
:1049F000DED118685B68014411605360D8E702D9C2
:104A00000C232B60D4E7206821188B4201BF196862
:104A10005B680918216063605460C9E738BD00BF56
:104A200064010020F8B5CD1C25F0030508350C2DD8
:104A300038BF0C25002D064601DBA94203D90C2303
:104A400033600020F8BD00F07DF821490A68144663
:104A50009CB9204F3B6823B92146304600F062F8EC
:104A600038602946304600F05DF8431C23D10C2302
:104A70003046336000F06CF8E3E723685B1B17D423
:104A80000B2B03D923601C44256004E06368A24219
:104A90000CBF0B605360304600F05AF804F10B0075
:104AA000231D20F00700C21ACCD01B1AA350C9E75F
:104AB00022466468CCE7C41C24F00304A042E3D07F
:104AC000211A304600F02EF80130DDD1CFE700BFCB
:104AD0006401002068010020F8B5074614460E4620
:104AE00021B91146BDE8F840FFF79CBF22B9FFF796
:104AF0004DFF25462846F8BD00F030F8A0420FD201
:104B000021463846FFF78EFF05460028F2D0314691
:104B10002246FFF713FF31463846FFF737FFE9E734
:104B20003546E7E738B50023054D044608462B60B7
:104B3000FDF78EF9431C02D12B6803B1236038BD09
:104B400098050020014800F011B800BFA005002022
:104B5000014800F00CB800BFA005002051F8043C4B
:104B6000181F002BBCBF0B58C01870477047704708
:104B7000F8B500BFF8BC08BC9E467047F8B500BF4A
:084B8000F8BC08BC9E4670471A
:104B880021375345473A2564230D0A0002030405DB
:104B9800060708090A0B0C0D0E0F10100000000084
:104BA80000000000010203040607080900000000D5
:104BB80001020304232D302B2000686C4C0065662D
:104BC8006745464700303132333435363738394156
:104BD800424344454600303132333435363738396C
:084BE800616263646566000070
:044BF0003501000883
:044BF40011010008A3
:104BF800FFFFFFFF00000000020000001027000078
:104C0800B80B000010270000B80B0000581B00006C
:104C18000008014000080140000C01400008014064
:104C28000200100001000100E80300000A00000073
:104C3800640000000000803F0A0000000024F40027
:104C480010000000010000005C00002000000000CF
:104C5800000000000000000000000000000000004C
:104C6800000000000000000000000000000000003C
:104C7800000000000000000000000000000000002C
:104C8800000000000000000000000000000000001C
:104C9800000000000000000000000000000000000C
:0C4CA80000000000000000000000000000
:04000005080020FDD2
:00000001FF
